:020000040800F2
:1000000018060020152B0008570D0008590D000890
:100010005B0D00085D0D00085F0D0008000000008A
:10002000000000000000000000000000610D00085A
:10003000630D000800000000650D0008670D000852
:10004000312B0008352B0008392B00083D2B000808
:10005000412B0008452B0008492B00084D2B0008B8
:10006000512B0008552B0008592B00085D2B000868
:10007000612B0008652B0008692B00086D2B000818
:10008000712B0008752B0008792B00087D2B0008C8
:10009000812B0008852B0008892B00089F0D000884
:1000A0008D2B0008D3200008912B0008952B000809
:1000B000992B00082B2200089D2B0008A12B00087B
:1000C000A52B0008A92B0008AD2B0008B12B0008B8
:1000D000B52B0008B92B000811230008BD2B000820
:1000E000C12B0008C52B0008C92B0008CD2B000828
:1000F000D12B0008D52B0008D92B0008DD2B0008D8
:10010000E12B0008E52B0008E92B0008ED2B000887
:10011000F12B0008F52B0008F92B0008FD2B000837
:10012000012C0008052C0008092C00080D2C0008E3
:100130002DE9F04FA1B08246002017461D460291DE
:100140000B900DF1440B6FF000490AE017F8011B0A
:100150000298D0470290002800F0A3820B98401C20
:100160000B90387808B90B989DE22528EED1002035
:10017000059006900790089009900A9001E040F0E1
:10018000010017F8011F2029F9D023290DD02B29B0
:1001900004D02D2906D030290AD00CE040F002000E
:1001A00080B2EEE740F00400FAE740F00800F7E71D
:1001B00040F01000F4E72A290ED12968296051F88F
:1001C000042B29600D92002A04D5514240F004000E
:1001D0000D9180B27F1C11E000210D9109E00D9975
:1001E000494505D001EB810302EB430130390D9104
:1001F0007F1C3A78A2F130010A29F0D339782E29F0
:1002000003D04FF0FF310C911DE017F8011F2A2990
:1002100007D1296829607F1C51F8042B29600C92B2
:1002200011E000210C9109E00C99494505D001EB42
:10023000810302EB430130390C917F1C3A78A2F123
:1002400030010A29F0D3ADF838000FF6B82039781C
:1002500000F076FD08B117F8010B8DF83A009DF813
:100260003A00682802BF39786829622005D06C28D6
:1002700004BF38786C2803D171208DF83A007F1CB8
:1002800011A8049017F8014BB4F1250024D02038B0
:10029000022840F2C680133800F0EC800B3800F0E2
:1002A0005081401E00F02581401E022840F2B98096
:1002B000001F00F01E81401F00F08480401E00F0EF
:1002C000D980401E29D0C01E0CD0801E00F0D280E4
:1002D000C01E00F0CF803EE10120059025208DF862
:1002E000440044E12868286050F8044B28600394D7
:1002F000DDF83080B8F1000F04D5204600F034FD61
:10030000804607E042460021204600F049FD08B142
:10031000A0EB0408CDF8188029E1296829604FF086
:100320003C0851F8040B29600021CDE9000111A817
:100330000390DDE90001049C11B908B90C9ACAB117
:100340000206120FA0EB02123032A8F1010ED2B257
:10035000F0463A2AA8BF273200090EF8042040EAE6
:100360000170090908BF002804D0039A08EB0403B0
:100370009A42E5D308EB04000390C8F13C010C98C5
:100380000691814209DA401A08904FF6EF71BDF8E4
:1003900038000840ADF83800E9E0002840F1E78077
:1003A0009DF8380000F01400102840F0E0800D980F
:1003B000059A801A089A801A401A0128C0F2D7803C
:1003C0000890D4E09DF83A0062281AD0682806D038
:1003D0006A280CD06C281CD0712808D019E0286835
:1003E000286050F8041B28600B980880BFE028683C
:1003F000286050F8042B28600B98C117C2E900014F
:10040000B5E02868286050F8041B28600B98087035
:10041000ADE02868286050F8041B28600B9808603D
:10042000A5E02868C01D20F007022A60D2E900017B
:1004300008322A60CDE90001002903D5012005908A
:100440002D200CE0BDF83800810703D50120059070
:100450002B2004E0C00704D50120059020208DF852
:100460004400059911A808180390214600A800F03F
:10047000D7F97CE09DF83A206C2A0DD0712A18BF7C
:100480006A2A09D12868C01D20F007032B60D3E930
:10049000000108332B6005E02968296051F8040B3E
:1004A00029600021CDE90001682A08BF80B207D089
:1004B000622A08BFC0B203D0742A18BF7A2A02D1B8
:1004C0000021CDE900019DF83800000730D5DDE9B5
:1004D0000001002908BF00282AD044F02000782815
:1004E00026D130208DF844008BF801400220059081
:1004F0001EE029469DF83A0000F0D8F8CDE9000149
:10050000002904DA0598411C05912D210EE0BDF863
:100510003800810704D50598411C05912B2105E081
:10052000C00705D50598411C0591202100F80B1046
:10053000059911A808180390214600A800F0EDF8CD
:1005400015E0012005902868286050F8041B2860F9
:100550008DF844100BE00120059025208DF8440013
:10056000002C04D00598411C059100F80B400D9813
:100570000599401A0899401A0699401A0999401A93
:100580000799401A0A99A0EB01089DF83800400726
:100590000FD420208DF84000002408E0012310AA89
:1005A00000A9504600F097FB00287AD1641C44450E
:1005B000F4DB059C11AE0AE016F8011B0298D04747
:1005C000029000286DD00B98401C0B90641E002CEC
:1005D000F2D130208DF840000026089C08E001236D
:1005E00010AA00A9504600F076FB002859D1761CCD
:1005F000A642F4DB069C039E0AE016F8011B029853
:10060000D047029000284CD00B98401C0B90641EE1
:10061000002CF2D130208DF840000026099C07E024
:10062000012310AA00A9504600F055FBC8BB761C58
:10063000A642F5DB03980699079C0E1809E016F808
:10064000011B0298D047029058B30B98401C0B90A6
:10065000641E002CF3D130208DF8400000260A9C47
:1006600007E0012310AA00A9504600F034FBC0B9EE
:10067000761CA642F5DB9DF8380040077FF571AD8A
:1006800020208DF84000002400E0641C4445BFF6A3
:1006900068AD012310AA00A9504600F01CFB0028F9
:1006A000F3D04FF0FF3021B0BDE8F08F622826D0A4
:1006B00068281DD06A2808D06C2827D0712804D05B
:1006C000742823D07A280CD020E00868C01D20F0C0
:1006D00007000860D0E9002308300860194610467A
:1006E00070470A680A6052F8040B0A6000217047DC
:1006F0000A680A6052F8040B0A6000B20BE00A684C
:100700000A6052F8040B0A6040B204E00A680A600A
:1007100052F8040B0A60C11770472DE9FA4E0546DE
:100720000A462F696F2A08BF082405D041F020002F
:10073000782814BF0A241024D5E900013C268146FC
:100740008A46642A18BF692A05D1002903DAD9F13B
:1007500000096AEB4A0ABAF1000F08BFB9F1000FAD
:100760000CD1286B50B9082C36D195F83800000709
:1007700032D530203B2687F83B002DE0E317484672
:100780005146224600F038FBA4FB0023A9EB0202ED
:100790003032A6F1010BD2B25E463A2A03DB9DF855
:1007A0000030513B9A180BF8072081465FEA010A96
:1007B00008BFB9F1000F03D0E868F1198842DDD312
:1007C000082C09D195F83800000705D5F05D3028D0
:1007D00002D0761E3020F055C6F13C00A861F11918
:1007E000E960296B884208DA081A28624FF6EF712F
:1007F000288F08402887BDE8F38E00290ED595F88C
:10080000381001F01401102908D1696B6A69891A3E
:100810002A6A891A081A0128A8BF2862BDE8F38E3F
:100820002DE9F34F8BB0D0E90089006B01AF0028B0
:1008300048BF062005D404BF41F02000672802D13C
:1008400001200B99086340F2FF720B984168C1F3D5
:100850000A50904220D1080302BF0B98006800287C
:100860000AD10B99032088619DF8300061381A285D
:1008700058D30FF2A44109E00B99032088619DF839
:10088000300061381A284AD30FF284410B98C068AF
:10089000032200F029FB00E1012807DA0B9800F0A1
:1008A0005EFB012802DB00230026EDE00B9A526874
:1008B00040F2FE3161F31E520B994A6040F2FE3164
:1008C000461A404649460022002300F069FB38BF23
:1008D00089F0004936B247F2975070434949DFF832
:1008E00028B190FBF1F636B2C6F107079246012F08
:1008F0001BDBF80707D552465B464046494600F0E9
:1009000067FB804689467F105046594652465B46F3
:1009100000F05EFB82468B46002FEAD126E00FF204
:10092000EC31B3E70FF2EC31B0E77F420024374DF2
:1009300012E0F80707D552465B462046294600F0EC
:1009400047FB04460D467F105046594652465B46CB
:1009500000F03EFB82468B46002FEAD140464946D6
:1009600022462B4600F006FC804689469DF8300062
:1009700040F02005662D0CBF06F10A0006200B99F9
:10098000096B4718142FA8BF132730208DF80400D7
:100990000DF10504DFF878B0012F3BDB40464946F6
:1009A00000F00CFD014604F1080204234FF00A0C8C
:1009B000B1FBFCFC0CEB8C04A1EB4401303102F8E0
:1009C000011D0A21BCFBF1FE0EEB8E04ACEB4404CE
:1009D0003034714602F8014D5B1EE7D1083F02F149
:1009E0000804012FD8DB00F0FFFC02460B4640460E
:1009F000494600F007FD00225B4600F0E9FA804618
:100A00008946CBE7A0860100000024400000F03FAB
:100A100084D797410DF10500201A0DF1050702E07A
:100A2000401E761E7F1C39783029F9D0662D02D100
:100A300036B2711C03E0652D0CBF012100210B9A19
:100A4000126B8B181BB29842B8BF03461BB2190039
:100A50001AD4814204DAC85D3528A8BF392000DAEB
:100A60003020CA19521E00E05B1E12F80159491EBF
:100A70008542F9D0392802D1C85D401CC8550029EB
:100A800002D57F1E5B1C761C36B29DF830100B9889
:100A900000961BB23A4600F003F80DB0BDE8F08FA7
:100AA0002DE9F04786B006468A4690461D4600F07E
:100AB00086FD406A376B90F80090012D02DA01251F
:100AC0000FF258284AF02000BDF93840662808BFC8
:100AD000641C13D0672840F0888014F1040F73DB86
:100AE000BC4271DA96F83800641C000702D4BD429B
:100AF000B8BF2F4624B23F1B48BF0027F068B1693A
:100B000024B2012C21DA30234A1C0B54012F03DAC2
:100B100096F83810090702D502F80090521CB2610D
:100B2000E742B8BF7C4224B26142E7197162AF422A
:100B3000B8BF3D462DB2F5612A46B3694146181843
:100B400000F0D2F9781BB062AEE00818A54216DAC0
:100B50002A46414600F0C8F9B1696918B161601BC5
:100B60007062012F03DA96F83800000705D5F068A7
:100B700001F80090F069401CF061B76294E02246F1
:100B8000414600F0B1F9B06920182D1B012F03DA9E
:100B900096F83810090703D5F16800F80190401C59
:100BA0002DB2B061AF42B8BF3D46F068B3692DB217
:100BB0002A4604EB0801181800F096F9B0692818C5
:100BC000B061781B70626FE0BD4204DA96F83810AD
:100BD000090758BF2F467F1E48BF0027BAF1670F8D
:100BE0000CBF4FF0650A4FF0450AB169F06818F87C
:100BF000013B0B544A1C012F05DA96F838100907FF
:100C000058BFB26115D502F80090531CB361012F93
:100C10000FDB6D1E2DB2AF42B8BF3D462DB22A4646
:100C20004146181800F060F9B0692818B061781BC7
:100C30007062F068B16901EB0008200008F801ABB0
:100C400003D42B2008F8010B03E02D2108F8011B29
:100C50006442002502AF08E00A2200A800F0C8FCA8
:100C6000019807F8010B6D1C009C21B20129F3DAF1
:100C7000022D06DA4AF02000652804BF302008F86B
:100C8000010B4DB9302008F8010B07E06D1E02A8DA
:100C9000285C303008F8010B012DF7DAF068B169F3
:100CA0000818A8EB0000F06196F8380000F0140076
:100CB00010280DD17069B1690818716A0818F169B6
:100CC0000818B16A0818716B8842BCBF081A3062F4
:100CD00006B0BDE8F087F8B504460D4616461F4637
:100CE000002004E0E86A401CE8627F1E002047B153
:100CF00016F8011BA868A047A8600028F2D14FF0A1
:100D0000FF30F2BD686A6C747A4C00006E616E0050
:100D10004E414E00696E6600494E4600300050F864
:100D2000041B61B150F8042BD30744BFA9F10103A0
:100D30009A18002342F8043B091FFAD1EFE77047E5
:100D40000278C9B28A421AB11CBF10F8012FF9E724
:100D500018BF002070477047FEE7FEE7FEE7FEE79A
:100D6000704770477047704700F10103810704D056
:100D700010F8011B89B18107FAD10268B2F1013183
:100D8000914311F0803F04BF50F8042FF6E710F8AC
:100D9000011B11B110F8011BFBE7C01A7047704727
:100DA000C9B2830706D0521E22D310F8013B9942E4
:100DB000F7D11FE0083A13D302F1040241EA0121FE
:100DC00041EA014150F8043B121F21BF4B40A3F1FF
:100DD000013C2CEA030C1CF0803FF3D0C9B2001F89
:100DE000083210F8013B521E28BF91EA030FF8D8D1
:100DF00018BF0120401E70471B4213D1094236D153
:100E00002AB18446B0FBF2F002FB10C2704700F03A
:100E1000F7BBFCD30022002370470B000200002127
:100E200000207047904271EB030CF6D370B5B1FA15
:100E300081F4B3FA83F52C1BA340C4F1200532FAE8
:100E400005F63343A2405FF00046E64002E05B084F
:100E50005FEA3202841A71EB030524BF204629465B
:100E60007641F4D302000B003000002170BD012A4E
:100E7000CFD970B5140C20D0B1FA81F4B2FA82F552
:100E8000C4F120046419B4F12006D6D3B2405FF057
:100E90000044F440002502E052085FEA3303C61A1A
:100EA00071EB020E24BF3046714664416D41F3D3AD
:100EB00002000B002000290070BD0C46B1FBF2F1CE
:100EC00002FB11452D0445EA1045B5FBF2F402FB87
:100ED000145580B240EA0545B5FBF2F002FB105212
:100EE00040EA044070BD000062B38B0708D0521E78
:100EF00011F8013B00F8013B00F024808B07F6D18C
:100F0000830740F0208000BF103A07D330B4B1E827
:100F10003810103AA0E83810F9D230BC530724BF7B
:100F2000B1E80810A0E8081044BF51F8043B40F8AD
:100F3000043BD20724BF31F8022B20F8022B44BF18
:100F40000B7803707047083A07D3B1E80810083AE5
:100F500040F8043B40F804CBF7D25307E4E730B441
:100F6000436803F0004201211B031B0B436004BFD5
:100F70000368002B08D10DE00368DD0F45EA440447
:100F800044605B000360491E4468E302F4D5230318
:100F90001B0B436043681A434260084630BC7047ED
:100FA0004FF4001C1CEB410F94BF1CEB430F09E0F6
:100FB00041EA030C50EA4C0C52EA0C0C03D2994261
:100FC00008BF9042704714BF8B42824270470000B6
:100FD000B0B581EA030C0CF0004C40F2FF7515EA45
:100FE00011541DBF15EA1357AC42AF4239E0E41962
:100FF00023EA455343F48013C90241F0004141EA1A
:10100000505EC7021100A7FB020200284FF000004B
:10101000EEFB01204FF00001E3FB072118BF42F077
:101020000102401800214941E3FB0E01A4F5806450
:101030000F0302D252004041494154F101046CDDDA
:10104000470872F1004250F1000051EB0451A1F544
:1010500080115CBF41EA0C01B0BD4CEA0551002093
:10106000B0BD05EA1357AC4214BFAF4241E050EAAD
:10107000410E1CBF52EA430E02E061460020B0BDA3
:1010800024423C441BD15FEA070EF6D0090302BF9D
:1010900001460020AEF1140EB1FA81F7AEEB070461
:1010A00001FA07FE0C37C7F1200100FA07F7C84024
:1010B0004EEA000E23EA455343F48013A2E733F0CF
:1010C0000043B3FA83F704BFB2FA82FE77440B3FC2
:1010D000E41BB7F1200E2FBF02FA0EF3BB40C7F19D
:1010E000200E22FA0EFE38BF43EA0E03BA40641CFB
:1010F00082E750EA410E14BF52EA430E6FF000013E
:101100004FF4001717EB430F8ABF194617EB410F37
:10111000B5E74CEA05510020B0BDD4F10104B4F1AB
:1011200020070FDAC4F12007520828BF42F001025D
:1011300010FA07F501FA07F7E1BF2A43E040384308
:10114000E1400FE0352C98DCC7F1200452EA400260
:1011500020FA07F218BF42F0010231FA07F0A1406D
:101160000A43002172F1004250F1000051EB0C01E2
:10117000B0BD0000F0B540F2FF7581EA030C0CF041
:10118000004C15EA11541DBF15EA1357AC42AF428B
:10119000E5E0BC41C1F31301C3F31303801A994185
:1011A00043F4801304D2641E400049418018594121
:1011B000C90241EA5051B1FBF3F603FB1611A2FB41
:1011C0000675D7EBC020A94102D2761E801859417E
:1011D000C90241EA5051B1FBF3FE03FB1E11A2FB11
:1011E0000E75D7EBC020A94103D2AEF1010E8018D5
:1011F0005941890241EA9051760546EA8E2EB1FBAB
:10120000F3F603FB1611A2FB0675D7EB8020A9416C
:1012100002D2761E80185941C90241EA50514EEA65
:10122000060EB1FBF3F603FB1611A2FB0675D7EB16
:10123000C020A94102D2761E80185941C90241EA54
:101240005051B1FBF3F703FB1711A2FB0735D3EBAA
:10125000C020A94167F100070CBF004247F0010719
:1012600066F3D5274FEA1E31B80814F5806412DD05
:10127000BD0775F1004250EB0E5051EB045111F5D2
:10128000801F5CBF41EA0C01F0BD4CF07F6141F072
:10129000E0410020F0BDBD076D0840EA0E5041F46A
:1012A0008011D4F10104B4F120060ADAC4F1200659
:1012B0000200E04001FA06F3E1401843B240154352
:1012C0000EE0342C13DCC6F1200445EA40056D081D
:1012D00020FA06F2154321FA06F0A1400D43002141
:1012E00075F1004250F1000051EB0C01F0BD0020FF
:1012F0005FEA0C01F0BDCFB992185B41B3FA83F7F6
:1013000004BFB2FA82F6BF190B3FB7F120062FBF18
:1013100002FA06F3BB40C7F1200622FA06F638BFF0
:101320003343BA401CB1E419641E33E77F4231F005
:101330000041B1FA81F404BFB0FA80F6A4190B3C65
:10134000B4F120062FBF00FA06F1A140C4F1200637
:1013500020FA06F638BF3143A0403C1B1AE7AC42E6
:101360001ABF05EA1357AF4212E050EA41061CBF0C
:1013700052EA4306BFE750EA4107304661461CBFC8
:1013800041EA0551F0BD52EA430C08BFC143F0BD2C
:1013900000204FF4001616EB410F98BF16EB430FD9
:1013A00008BF16EB410F24BFC14305E016EB430F06
:1013B0000CBF61464CEA0551F0BD0000400D40EA0B
:1013C000C120490080F00D8040F00040490DA1F59A
:1013D0008061491C05D4D1F11F0154BFC840C0171A
:1013E00070474FF000007047010000BF09D0B0FA0D
:1013F00080F18840C91CC1F58461090501EBD02149
:101400004005704770B44FF0004591EA030F44BFA8
:101410006B4000F0F7B800BF841A71EB030604D2EA
:101420006E40001BB141121973414FF4001C1CEBBC
:10143000410F34BF7CEB430684E00C0DA4EB135644
:10144000362E7DDC012E43DC45EAC32343EA5253AA
:1014500012BFD20292025B08240545EAC12141EA8B
:101460005051D2EBC020994125D407D1B0FA80F673
:1014700010FA06F164D00020203608E0B1FA81F6B7
:10148000B140C6F1200220FA02F21143B0404FEA07
:10149000F474B4EB465434F001064FEA74040AD8ED
:1014A000D6F50016760D04F00044F04061FA06F21D
:1014B0005040F1404840C00A40EA415021F000410C
:1014C00028BF5FEA500550F1000044EBD12137E01E
:1014D00045EAC323DB0A45EAC121C90AB6F1200562
:1014E0000EDD42EA0242120CC5F1200603FA06F6AE
:1014F000EB4042EA06056D42984161F100010DE0C2
:1015000062FA06F5F240554063FA06FC82EA0C02E4
:10151000F3405A406D42904161EB030111F4801F8A
:1015200005D1641E620502D06D004041494121F49D
:101530008011430875F1004350F1000041EB045164
:1015400070BC70471CEB410F15D223F0004352EAE8
:1015500043060BD04FEA4C0CBCEB410F04D80C0DEA
:10156000661E342EB7DDEBE7801A994150EA41063A
:1015700008BF0021E4E708BF1CEB430F28BF6FF052
:101580000001DDE780B5134800F0A6F80FF248012E
:10159000016041608160C1600161416181610FF260
:1015A0003C0242628162C162016341630FF2300218
:1015B00082630FF23402C2630164416401BD10B55D
:1015C000044800F089F80446206808B9FFF7DAFFFC
:1015D000204610BD00000020000000002E0000008A
:1015E00066616C7365000000747275650000000030
:1015F00091FBF2F303FB1211C0E9003170470000C8
:1016000070470000841A71EB030603D2001BB1413E
:10161000121973414FF4001C1CEB410F34BF7CEBDB
:10162000430443E00C0DA4EB1356352E50DC45EA81
:10163000C323DB0A45EAC121C912B6F120050DDD3D
:1016400063FA05F6EB4086EA0305124218BF45F03F
:101650000105C01851F100010CD213E062FA06F541
:10166000F2405540F3415A40B340F3405A4080188D
:10167000594107D349085FEA30005FEA350528BFC2
:1016800045F0010501F58011420875F1004250F165
:10169000000041EB045170BC4FF4001C1CEB410FE7
:1016A00038BF70470020090D090570471CEB410F3A
:1016B00010D252EA43060BD0BCEB410F05D80C0DFB
:1016C000AB43661E342EB5DD02E0AB4380185941B2
:1016D00070BC704770BC70477047000010B582B096
:1016E0000121082000F0B5F91020ADF800008DF8B8
:1016F000030003208DF8020000A99D4C204600F055
:10170000D1F90121082000F0A4F92020ADF8000053
:1017100000A910208DF8030003208DF80200204658
:1017200000F0C0F9934801210160416013BDF0B49D
:10173000101801E0521C401C0378B3B10C78A3428E
:10174000F8D100230C460546267846B12E7836B1EE
:1017500014F8016F15F8017F5B1CBE42F4D05B5C8E
:10176000002BE7D1F0BC10467047F0BC4FF0FF30C3
:101770007047000098B58048814C00687F4F421C3C
:1017800039462046FFF7B0FB00225021384600F0D2
:101790001DFA76A700220FF2F8112046FFF7C7FFC7
:1017A000012833DB002239462046FFF7C0FF01281D
:1017B0002CDBA07A302804D100F092FA0020A0653A
:1017C00019E0607A312809D014D333280AD007D31E
:1017D00035280BD008D336280AD00BE001200AE0C8
:1017E000022008E0032006E0042004E0052002E0D7
:1017F000062000E0002020650020624908700022D9
:101800002046BDE89840502100F096BA00223946A3
:101810002046FFF78CFF10F1010F40F07B80E0784D
:10182000312808BF052003D032280CBF0620002035
:10183000E279616D312A06D16431B1F57A7F08DD34
:101840004FF47A7105E0322A03D164396429B8BFB4
:1018500064216165E27B4749312A03D101220A6094
:10186000002201E001220A604A60052818BF06280C
:1018700012D06078312806D00DD3332807D004D396
:10188000342806D007E0012006E0022004E003200F
:1018900002E0042000E00020A06500203949087023
:1018A00000225021204600F047FAA06D401E052876
:1018B0002CD8DFE800F003180A111F25606DBDE881
:1018C0009440A0F1140100F0FDB9606DBDE89440B2
:1018D0000146C83800F00ABA606DBDE89440A0F136
:1018E000C80100F009BA606DBDE89440A0F1140190
:1018F00000F0EEB9606DBDE89440014600F002BA18
:10190000606DBDE89440014600F002BABDE8914028
:1019100000F0E6B991BDF0B587B000F02AFAFFF704
:10192000DDFE0FF27404194D174E164F387808B1CA
:10193000FFF720FF1248006D0028F7D13068A84259
:10194000F4DB0020306000F086FA0021059104915C
:101950000391029100F0C6FACDE9000100220023B4
:10196000204600F0E7FAE1E70000000034574400A9
:10197000000C014090812142A40100205001002070
:10198000880000204C010020FC010020A0860100FE
:101990004D4F444500000000243457442C4353422B
:1019A000252E32662C505625312E32662C47532573
:1019B000642C4C46253034642C4857253032642C36
:1019C000474D2530326423001043086070472E498C
:1019D0000A6822F44042F7E710B42B490A6802F083
:1019E0000C02082A0FD10A680B68C2F38342921CCA
:1019F000DB0358BF254B04D50B689B034CBF234B1F
:101A0000234B5A4300E0224A02600B68214A0468D3
:101A1000C3F303139B5C24FA03F343600B6844682D
:101A2000C3F302239B5C24FA03F383600B684468CE
:101A3000C3F3C2239B5C24FA03F3C3600968C36841
:101A4000C1F381318918097CB3FBF1F1016110BC4C
:101A50007047114A0029116814BF084321EA0000A9
:101A6000106070470D4A0029116814BF084321EA2D
:101A70000000106070470A4A0029116814BF08432B
:101A800021EA0000106070470410024000093D0088
:101A900000127A0024010020181002401C1002409D
:101AA0000C1002402DE9F041CC78002204F00F0325
:101AB000E40644BF8C7823430C88E5B225B3D0F804
:101AC00000C001250F2605FA02F7BE460EEA0408FB
:101AD000F04514D14FEA820E06FA0EF82CEA080CF3
:101AE00003FA0EFE4EEA0C0C91F803E0BEF1280F4B
:101AF00008BF476103D0BEF1480F08BF0761521C01
:101B0000082AE0D3C0F800C0FF2C28DDD0F804C0BC
:101B1000002201250F2602F1080705FA07F7BE4645
:101B20000EEA0408F04515D14FEA820E06FA0EF8C7
:101B30002CEA080C03FA0EFE4EEA0C0C91F803E0B6
:101B4000BEF1280F08BF476191F803E0BEF1480FCE
:101B500008BF0761521C082ADDD3C0F804C0BDE8E5
:101B6000F081016170474161704770B4164A0028E6
:101B70004CBF9469146800F44016C0F3034583B267
:101B8000B6F5401F06D1156825F0706524F0706425
:101B900015600CE0C60203D5032606FA05F503E03E
:101BA000450D2D0103FA05F5AC4344F0706421B1F5
:101BB000410D090103FA01F10C4300284CBF946167
:101BC000146070BC704700000400014062F30F22F3
:101BD00062F31F42401810F0030308D0C91A1FD344
:101BE000DB0748BF00F8012D28BF20F8022D1300A5
:101BF00030B414461546103928BF20E93C00FAD805
:101C0000490728BF20E90C0048BF40F8042D89008F
:101C100028BF20F8022D48BF00F8012D30BC7047C6
:101C2000C91818BF00F8012DCB0728BF00F8012DF7
:101C30007047000010B582B001213820FFF709FF7E
:101C40004FF40060ADF8000010208DF80300032071
:101C50008DF8020000A9314C2046FFF723FF4FF416
:101C600000612046FFF77DFF4FF48050ADF8000083
:101C700000A92046FFF716FF4FF480512046FFF7DA
:101C800070FF0420ADF8000000A9254C2046FFF7A6
:101C900009FF04212046FFF764FF01210920FFF717
:101CA000D8FE01211F48FFF760FF1F4C0820ADF848
:101CB000000000A92046FFF7F5FE08212046FFF7A7
:101CC00050FF13BD194A106019480160002004E05C
:101CD000164A1060164801600120164908607047D6
:101CE0001249002008601249086070470F4A1060CE
:101CF0000F4801600220F0E70C4A10600C480160B8
:101D00000320EAE7094A1060094801600420E4E77B
:101D1000064A1060064801600520DEE70010014019
:101D20000014014000023000000C01400C020020B1
:101D3000140200201002002062F30F2262F31F42FF
:101D400000B500BF130096469446103928BFA0E89E
:101D50000C50FAD85FEA417C28BF0CC048BF40F85D
:101D6000042BC90728BF20F8022B48BF00F8012B1D
:101D700000BD80B500F0F0F800F024F94FF4A06049
:101D800000F03CF900F024F800F012F8FFF752FFE1
:101D90004821092000F07CF94FF4165000F06BFA4E
:101DA000BDE8044041F61F4142F2107000F00DBA48
:101DB00080B501211020FFF74CFE1020ADF8000087
:101DC00000A900208DF803004348FFF76BFE01BD1A
:101DD00010B586B001214FF40470FFF73AFE4FF4BE
:101DE0000040FFF7F4FD01211020FFF732FE102024
:101DF000ADF8000000A900208DF803003648FFF779
:101E000051FE364C204600F0C3FA00200190ADF898
:101E1000080001A94FF460200390002004900120E5
:101E20008DF81400204600F0DCFA0121204600F075
:101E3000F6FA204600F0FCFA204600F0FEFA0028F0
:101E4000FAD1204600F0FCFA204600F0FEFA002805
:101E5000FAD106B010BD70B582B001211020FFF795
:101E6000F8FD1020ADF8000000A900208DF8030057
:101E70001948FFF717FE194E00240A2507230122EF
:101E80000E21304600F0EFFA0121304600F0E2FA70
:101E90000221304600F034FB0028F9D0304600F033
:101EA00021FB0419052000F06FF86D1EE6D10A2011
:101EB000B4FBF0F080B200F02BFB00F013F84FF011
:101EC0006632074BFFF784F800F032FB4FF0814198
:101ED00000F076FB76BD00000010014000240140B8
:101EE00066664A3F5FF0FF0C1CEAD05114BF6145A3
:101EF00006E0C110400721F0E04101F16051704758
:101F000079B900F0004100020AD0B0FA80FC00FA72
:101F10000CF001F16051A1EB0C5101EBD021400517
:101F2000704741020CBF40F4E0016FF00001002057
:101F3000704700000EB400B582B003A900910246BC
:101F400000AB0121034878440A30FEF7F1F806BCE3
:101F50005DF810FB9F0B000080B56FF0040000F0EF
:101F600080F8064906480968064AB1FBF2F101709B
:101F70004FF47A7201785143418001BD480100203D
:101F80000802002000127A00014A024904E000BF62
:101F90000802002010E000E0528850434860002012
:101FA0008860086840F001000860086800F00110CF
:101FB0000128FAD0086840084000086000208860C6
:101FC0007047000010B582B001210420FFF741FDE9
:101FD0000220ADF8000010208DF8030003208DF8DA
:101FE000020000A9044C2046FFF75CFD02212046B8
:101FF000FFF7B9FD13BD00BF000801401E490843AB
:102000001E490860704770B40378C4781A460121ED
:10201000ECB11A4B1B68447803F4E063C3F5E0634A
:102020001B0AC3F10405AC4085780F2626FA03F39A
:102030002B402343124C1B011355007800F01F0264
:102040009140104A400942F8201070BC704703F0DC
:102050001F0001FA00F00C49520941F8220070BC3F
:1020600070470A49042808680CBF40F0040020F0BB
:1020700004000860704700000000FA050CED00E065
:1020800000E400E000E100E080E100E010E000E0BA
:1020900030B504460D4685B001214FF40060FFF7CE
:1020A000D8FC681EADF80400ADF808400020ADF87B
:1020B0000A00ADF806008DF80C0001A9614C20461D
:1020C00000F0EAFA01220121204600F036FB192037
:1020D00097E038B55C485D4C00685A4D4000A06000
:1020E00001215B4800684000E060284600F02DFBBD
:1020F000002869D00121284600F031FB6168206882
:10210000491C6160401C534909682060D1B1012914
:1021100014D1A3685049514A834204DB0123136060
:1021200000220A6002E0002313600B60E168814234
:1021300041DB4B4901224A6000223FE0022918BFDF
:10214000032913D1A3684449444A834204DB002392
:10215000136001220A6002E0002313600B60E16853
:10216000814228DB3E494B60012227E004290DD142
:10217000A16881421ADB394A012111600021364AE7
:102180001160002236494A60012217E0052916D164
:10219000A16881420ADB314A0021116001212E4AE7
:1021A000116001222E494A60002207E02B4A0021DB
:1021B0001160294A1160002229494A600A60B0F57D
:1021C000FA6F04BF0020206031BD30B504460D46D3
:1021D00085B001210220FFF745FCADF80840002042
:1021E000ADF80A00ADF80600ADF8045001A91D4C89
:1021F000204600F051FA01220121204600F09DFA0C
:102200001D208DF8000000208DF8010003208DF8BE
:10221000020001208DF8030000A8FFF7F4FE012161
:10222000204600F080FA05B030BD10B50D4C0121FC
:10223000204600F08AFA2046BDE81040012100F057
:102240008EBA0000002C01400C020020F801002092
:102250001402002010020020888122428C81214239
:10226000AC0122420004004047490A885206FCD5CE
:10227000C2B28A80704730B5044687B0012104207D
:10228000FFF7E7FB01214FF40030FFF7EBFB0420E1
:10229000ADF8000003208DF8020018208DF803002F
:1022A00000A9384D2846FFF7FDFB0820ADF80000D7
:1022B00000A904208DF803002846FFF7F3FB262031
:1022C0008DF8040003208DF805008DF8060001202C
:1022D0008DF8070001A8FFF796FE029400200390F6
:1022E000ADF81000ADF814000C20ADF8120002A9F2
:1022F000254C204600F04CFA012240F225512046A0
:1023000000F09EFA0121204600F090FA07B030BD9F
:1023100010B51D4C0821204600F0AEFA30B108215E
:10232000204600F0B0FA204600F0A2FA2021204614
:1023300000F0A2FA28B340F22551204600F0A4FA9A
:10234000A1881248C9B2242905D101224270017125
:10235000002242650CE04378012B01BF436D1C183D
:102360002171232904D1012101708365002141706D
:10237000416D491C4165502903DB002141654170D5
:10238000017010BD00080140004400404C010020D5
:1023900080B55649884208D101214FF40070FFF7FB
:1023A0006AFB00214FF4007016E05149884208D1C1
:1023B00001214FF48060FFF75EFB00214FF4806045
:1023C0000AE04C4988420BD101214FF40040FFF74D
:1023D00052FB00214FF40040BDE80440FFF74BBB27
:1023E00001BD4268444B1A400B681A430B7942EA1C
:1023F00003224260414B82681A40CB681A438B68C3
:102400001A434B7942EA43028260C26A097C491E40
:1024100022F47002C9B242EA0151C1627047002938
:10242000816812BF41F0010149084900816070478D
:10243000816841F00801816070478068C00806E04B
:10244000816841F00401816070478068800800F075
:10245000010070470029816814BF41F4A00121F4F4
:10246000A0018160704770B407240A290BDBA1F139
:102470000A0505EB4505C668AC4026EA0404AB40F6
:102480002343C36008E001EB41050669AC4026EA3E
:102490000404AB40234303611F24072A0ADA521EB7
:1024A00002EB8202436B9440A34391401943416382
:1024B00070BC70470D2A0ADAD21F02EB8202036B4E
:1024C0009440A34391401943016370BC70470D3A97
:1024D00002EB8202C36A9440A34391401943C16254
:1024E00070BC7047C06C80B270470000002401408F
:1024F00000280140003C0140FFFEF0FFFDF7F1FF26
:1025000000680022084218BF0122104670470000F0
:10251000002800BF0AD0B0FA80F18840D1F19D01B7
:10252000C905020672F1004241EB1020704700001D
:102530004FEAF17CBCF1E04C2CBFBCF5001F11E070
:102540005FEA4C0C34BFBCF17F5F2EE05FEA9C0C6D
:102550004FEA0C1C4FEA3C0CC10071F100414CEBFE
:1025600050707047C90241EA5051C00218BF41F093
:10257000010141F000414FEA6C50C0F109002128EF
:1025800010D240EACC7CCCF1200C11FA0CF070F1A6
:102590000040CCF1200C21FA0CF00CF0004C40EB88
:1025A0000C0070474FEACC707047490011F5001FCE
:1025B00004D84FEACC10FF30C0057047C8177047E9
:1025C000FF2212EAD05C1DBF12EAD1539445934218
:1025D0002BE09C44D30780EA01021A4043EA002022
:1025E00043EA0121A1FB0030410038BF40007CF1EB
:1025F0007F010BDBFE294ADA5B0842EAC15153EA4C
:10260000006373F1004C51EB10207047D1F1080CBE
:10261000DCF120012FDB5B0810FA01F10B4373F1B1
:10262000004120FA0CF05041704794451CBF02EA6B
:10263000D153934280EA010202F000421DD04000D3
:1026400019D0490017D05BB9634514D00902B1FA1B
:1026500081F39940BCEB030CC00140F00040C1E79E
:102660000002B0FA80FC10FA0CF0B3EB0C0CC901BC
:1026700041F00041B6E71000704740000AD0490021
:1026800008D010F1807F94BF11F1807F02E042F00A
:10269000FF407047D043704710B40388DFF8C8206C
:1026A00090421CBFDFF8D840A0420ED0B0F1804F5E
:1026B0001CBFDFF8B840A04207D0DFF8B440A0420A
:1026C0001CBFDFF8B040A04204D14FF68F74234006
:1026D0004C882343DFF8A040A0421CBFDFF89C4099
:1026E000A04204D04FF6FF442340CC88234303800C
:1026F00090428B8883850B8803851CBFDFF8802080
:1027000090420AD0DFF87C2090421FBFDFF878208B
:102710009042DFF87820904201D1097A01860121A8
:10272000818210BC70470029018812BF41F001016D
:102730004FF6FE72114001807047002A828914BF53
:10274000114322EA010181817047038A80890022B6
:1027500008400B421CBF002801221046704700BFF2
:10276000C943018270470000002C01400004004072
:1027700000080040000C0040001000400014004021
:102780000034014000400140004401400048014045
:1027900030B5044685B00D46208A4CF6FF710840DE
:1027A000E988084320824EF6F311A0890840A988E1
:1027B00008432989084369890843A0814FF6FF41EE
:1027C000A08A0840A9890843A08200A8FFF704F95D
:1027D000154884420CBF0398029829681922504377
:1027E000A28912044CBF49008900B0FBF1F16420BA
:1027F000B1FBF0F000010209642303FB1211A2896E
:10280000120406D5C9003231B1FBF3F101F0070122
:1028100005E009013231B1FBF3F101F00F0108438A
:10282000208105B030BD00000038014000298189B9
:1028300012BF41F400514DF6FF7211408181704783
:102840000B065B0F4FF0010C01F01F010CFA01F1B8
:10285000012B08BF0C3003D0022B0CBF10301430FA
:10286000002A026814BF114322EA01010160704787
:102870008088C005C00D704700880022084218BF3C
:1028800001221046704704E00122090A02FA01F110
:1028900089B2C943018070473548364A82B0016821
:1028A00041F001010160416811404160324A016814
:1028B00011400160016821F480210160416821F428
:1028C000FE0141604FF41F018160002101910091E0
:1028D000016841F480310160016801F40031009128
:1028E0000199491C0191009919B90199B1F5A06F9D
:1028F000F2D10168490C01F0010100910099012910
:1029000030D11E490A6842F010020A600A68920833
:1029100092000A600A6842F002020A60416841605F
:1029200041684160416841F480614160416821F43F
:102930007C114160416841F4E8114160016841F057
:102940008071016001688901FCD5416889088900AE
:102950004160416841F002014160416801F00C01B1
:102960000829FAD14FF000600549086002B07047AD
:10297000001002400000FFF8FFFFF6FE00200240BA
:1029800008ED00E0816807E0026811685368891863
:102990005B18C36008320260C2689142F4D04A1CDE
:1029A0008260087870472DE9FF4D00F10801009121
:1029B00000270268520801EBC2010191B8460021CC
:1029C000029103910168490800EBC101406800F0E1
:1029D000010501F10804400804EBC00631E000A83D
:1029E000FFF7D0FF4FFA80FA0AE000980168081854
:1029F00000990290496808180390009808300090E8
:102A0000029803998842F0D0401C029010F801BD52
:102A100047450CD1B44208BF00F01DF8276805B146
:102A20004F44606800EB070808344745F2D007F8C8
:102A300001BBBAF1000F0AD51AF1010AE8D14745E6
:102A4000CDD1B442CBD1304604B0BDE8F08DBAF15F
:102A5000010AD5D5F3E7012000F000B880B5C046E3
:102A6000C046024A11001820ABBEFBE72600020058
:102A700010B5074979441831064C7C44163404E0FB
:102A80000A68081D511888470146A142F8D110BDB7
:102A9000080000003000000087E2FFFFCC000000CB
:102AA0004C01002000000000FFFEFFFF02000000BC
:102AB000020000005C010000530000000000002044
:102AC0004C01000000F00BF8002801D0FFF7D0FF08
:102AD0000020C046C046FEF71EFF00F002F80120AD
:102AE000704700F001B8000007463846FFF7B6FF10
:102AF000FBE738B504460D46284600F005F8A84225
:102B000018BF0024204632BD0149FFF7ADBB00BF0E
:102B1000E400002001488047014800479928000848
:102B2000252B0008C046C046C046C046FFF7CAFF76
:102B3000FFF7FEBFFFF7FEBFFFF7FEBFFFF7FEBFC9
:102B4000FFF7FEBFFFF7FEBFFFF7FEBFFFF7FEBFB9
:102B5000FFF7FEBFFFF7FEBFFFF7FEBFFFF7FEBFA9
:102B6000FFF7FEBFFFF7FEBFFFF7FEBFFFF7FEBF99
:102B7000FFF7FEBFFFF7FEBFFFF7FEBFFFF7FEBF89
:102B8000FFF7FEBFFFF7FEBFFFF7FEBFFFF7FEBF79
:102B9000FFF7FEBFFFF7FEBFFFF7FEBFFFF7FEBF69
:102BA000FFF7FEBFFFF7FEBFFFF7FEBFFFF7FEBF59
:102BB000FFF7FEBFFFF7FEBFFFF7FEBFFFF7FEBF49
:102BC000FFF7FEBFFFF7FEBFFFF7FEBFFFF7FEBF39
:102BD000FFF7FEBFFFF7FEBFFFF7FEBFFFF7FEBF29
:102BE000FFF7FEBFFFF7FEBFFFF7FEBFFFF7FEBF19
:102BF000FFF7FEBFFFF7FEBFFFF7FEBFFFF7FEBF09
:102C0000FFF7FEBFFFF7FEBFFFF7FEBFFFF7FEBFF8
:102C1000E400F8FFDC00FAFF8100F10000C8F900D1
:102C20001F02040101A8010020F8010020A80100F2
:102C300020A8010020A80100202101002008010097
:102C400020DC000F01020304010203040607080947
:102C500002040608F8000B01020304060708090035
:032C6000A24A0481
:0400000508002B259F
:00000001FF
